:020000040800F2
:100000000028002021130008C5120008CB120008A8
:10001000D1120008D7120008DD120008000000000D
:10002000000000000000000000000000E3120008D3
:10003000EF12000800000000FB1200080713000880
:1000400069130008691300086913000869130008A0
:100050006913000869130008691300086913000890
:100060006913000869130008691300086913000880
:100070006913000869130008691300086913000870
:100080006913000869130008691300086913000860
:100090006913000869130008691300086913000850
:1000A0006913000869130008691300086913000840
:1000B00069130008691300080000000069130008B4
:1000C0006913000800000000000000006913000828
:1000D0000000000069130008691300080000000018
:1000E0006913000869130008691300080000000084
:1000F0000000000000000000000000000000000000
:0C01000000000000000000005FF808F1A3
:10010C0010B5054C237833B9044B13B10448AFF345
:10011C0000800123237010BD1C0000200000000093
:10012C00B426000808B5034B1BB103490348AFF3D1
:10013C00008008BD0000000020000020B42600084C
:10014C0080B400AF064B1B68012B04D1044B00227A
:10015C001A60012300E000231846BD4680BC70479E
:10016C0038000020B0B500AFA44B1B68042B00F284
:10017C00DF8201A252F823F0990100081502000851
:10018C0025050008D70500088B0600084FF4FA7007
:10019C0001F010F84FF47A7001F026F8984B1B68B8
:1001AC00984A1360984B1B68984A1360984B1B68CD
:1001BC00984A1360984B00221A60984B00221A60E0
:1001CC0001221021964801F08BFB0122402194481A
:1001DC0001F086FB01222021914801F081FB0122D4
:1001EC0080218F4801F07CFB01224FF400718C4878
:1001FC0001F076FB01224FF48071894801F070FB0D
:10020C007E4B01221A609CE2864B1B68864A82FB5D
:10021C0003129210DB17D41A824B1A68824B83FBA1
:10022C0002139910D317C91A0B469B000B445B00A1
:10023C00D11A7E4B1B687C4A82FB03029210DB179F
:10024C00D51A7A4B1A68784B83FB02039810D31794
:10025C00C01A03469B0003445B00D01A03462A468F
:10026C00204600F0E7FD724B1B68012B40F020810B
:10027C00694B1B680133684A1360684B1B68013378
:10028C00664A1360644B1A685D4B1B689A4216DC15
:10029C0000221021624801F023FB0122202160483A
:1002AC0001F01EFB012240215D4801F019FB544B6B
:1002BC001A68594B1B68D31A5A4A13604AE0504BC0
:1002CC001A68534B1B681A44534B1B689A4219DB30
:1002DC0001221021524801F003FB01222021504839
:1002EC0001F0FEFA002240214D4801F0F9FA444B8E
:1002FC001A68474B1B681A44474B1B68D31A494A68
:10030C00136027E03E4B1A683F4B1B681A44404B66
:10031C001B681A44404B1B689A421BDB01221021BC
:10032C003F4801F0DDFA002220213D4801F0D8FAC7
:10033C00012240213A4801F0D3FA314B1A68324B72
:10034C001B681A44324B1B681A44334B1B68D31A74
:10035C00344A13602A4B1A682B4B1B681A442C4BDB
:10036C001B681A442C4B1B689A4203DC2A4B4FF037
:10037C00FF321A60294B1A68254B1B689A4218DC0D
:10038C0001228021264801F0ABFA01224FF4807142
:10039C00234801F0A5FA00224FF40071204801F027
:1003AC009FFA1B4B1A681D4B1B68D31A1F4A13600C
:1003BC006AE0174B1A68144B1B681A44174B1B68DE
:1003CC009A4237DB01228021154801F089FA00227C
:1003DC004FF48071124801F083FA01224FF400713E
:1003EC000F4801F07DFA0A4B1A68074B1B681A4438
:1003FC000A4B1B68D31A0D4A136045E058000020C5
:10040C0000000020440000200800002048000020CC
:10041C00040000204C0000203C0000204000002084
:10042C0000080140500000206766666654000020FA
:10043C0078000020C44B1A68C44B1B681A44C44B88
:10044C001B681A44C34B1B689A421DDB0022802197
:10045C00C14801F045FA01224FF48071BE4801F009
:10046C003FFA01224FF40071BB4801F039FAB64B48
:10047C001A68B64B1B681A44B54B1B681A44B54B2B
:10048C001B68D31AB54A1360AF4B1A68AF4B1B6885
:10049C001A44AF4B1B681A44AE4B1B689A4203DCE0
:1004AC00AC4B4FF0FF321A604FF47A7000F082FEC2
:1004BC00FFF746FE0346012B40F03C814FF4FA70E7
:1004CC0000F092FEA64B00221A60A24B00221A608A
:1004DC00A44B02221A60012210219F4801F000FA5D
:1004EC00012280219C4801F0FBF9012220219A482D
:1004FC0001F0F6F901224FF48071974801F0F0F900
:10050C0001224021944801F0EBF901224FF40071D3
:10051C00914801F0E5F90DE1934B1B68934A82FB7E
:10052C0003129210DB17D01A8F4B1A688F4B83FB78
:10053C0002139910D317C91A0B469B000B445B008E
:10054C00D11A0B4602460221002000F073FC884BA6
:10055C001B68012B0BD110217F4801F0D9F98021A8
:10056C007D4801F0D5F94FF4FA7000F03DFEFFF72D
:10057C00E7FD0346012B40F0DF804FF4FA7000F0EA
:10058C0033FE784B03221A6001221021724801F0CD
:10059C00A7F901228021704801F0A2F90122202143
:1005AC006D4801F09DF901224FF480716A4801F009
:1005BC0097F901224021684801F092F901224FF489
:1005CC000071654801F08CF9B6E06A4B1B68674A0C
:1005DC0082FB03129210DB17D01A664B1A68634B1E
:1005EC0083FB02139910D317C91A0B469B000B44BB
:1005FC005B00D11A0B4602460321002000F01AFCC6
:10060C005B4B1B68012B0CD12021534801F080F966
:10061C004FF48071504801F07BF94FF4FA7000F000
:10062C00E3FDFFF78DFD0346012B40F087804FF46F
:10063C00FA7000F0D9FD4B4B04221A6001221021F4
:10064C00454801F04DF901228021434801F048F959
:10065C0001222021404801F043F901224FF480711E
:10066C003D4801F03DF9012240213B4801F038F9A9
:10067C0001224FF40071384801F032F95EE03E4B34
:10068C001B683A4A82FB03129210DB17D01A3A4BC2
:10069C001A68364B83FB02139910D317C91A0B46F1
:1006AC009B000B445B00D11A0B4602460421002030
:1006BC0000F0C0FB2E4B1B68012B0CD140212648AF
:1006CC0001F026F94FF40071234801F021F94FF4A1
:1006DC00FA7000F089FDFFF733FD0346012B2FD193
:1006EC004FF4FA7000F080FD1E4B00221A600122BC
:1006FC001021194801F0F4F801228021164801F06C
:10070C00EFF801222021144801F0EAF801224FF4FD
:10071C008071114801F0E4F8012240210E4801F0EB
:10072C00DFF801224FF400710B4801F0D9F807E013
:10073C0000BF06E000BF04E000BF02E000BF00E025
:10074C0000BF00BFB0BD00BF0000002008000020AB
:10075C00040000204000002000080140540000204C
:10076C003C000020580000204400002067666666AC
:10077C0080000020480000204C00002080B582B092
:10078C0000AF78607B68092B00F2808101A252F8DF
:10079C0023F000BFC9070008110800085908000819
:1007AC00A1080008E90800083109000879090008C7
:1007BC00C1090008090A0008510A00080022012199
:1007CC00B54801F08DF800220221B34801F088F8F9
:1007DC0000220421B04801F083F800220821AE4821
:1007EC0001F07EF800221021AB4801F079F80022CC
:1007FC002021A94801F074F801224021A64801F0FB
:10080C006FF844E101220121A34801F069F80022AC
:10081C000221A14801F064F8002204219E4801F055
:10082C005FF8012208219C4801F05AF8012210219E
:10083C00994801F055F801222021974801F050F811
:10084C0001224021944801F04BF820E100220121C3
:10085C00914801F045F8002202218F4801F040F840
:10086C00012204218C4801F03BF8002208218A481F
:10087C0001F036F800221021874801F031F80122EE
:10088C002021854801F02CF800224021824801F0FB
:10089C0027F8FCE0002201217F4801F021F800221A
:1008AC0002217D4801F01CF8002204217A4801F055
:1008BC0017F800220821784801F012F801221021C3
:1008CC00754801F00DF801222021734801F008F859
:1008DC0000224021704801F003F8D8E001220121E8
:1008EC006D4800F0FDFF002202216B4800F0F8FF7C
:1008FC0000220421684800F0F3FF01220821664819
:10090C0000F0EEFF01221021634800F0E9FF002205
:10091C002021614800F0E4FF002240215E4800F0F5
:10092C00DFFFB4E0002201215B4800F0D9FF012277
:10093C000221594800F0D4FF00220421564800F04F
:10094C00CFFF00220821544800F0CAFF01221021D9
:10095C00514800F0C5FF002220214F4800F0C0FF95
:10096C00002240214C4800F0BBFF90E00022012106
:10097C00494800F0B5FF01220221474800F0B0FFC2
:10098C0000220421444800F0ABFF00220821424819
:10099C0000F0A6FF002210213F4800F0A1FF00222A
:1009AC0020213D4800F09CFF002240213A4800F0F5
:1009BC0097FF6CE000220121374800F091FF0022E4
:1009CC000221354800F08CFF00220421324800F04F
:1009DC0087FF01220821304800F082FF01221021FC
:1009EC002D4800F07DFF012220212B4800F078FFDC
:1009FC0001224021284800F073FF48E00022012129
:100A0C00254800F06DFF00220221234800F068FF0A
:100A1C0000220421204800F063FF002208211E4818
:100A2C0000F05EFF002210211B4800F059FF00224D
:100A3C002021194800F054FF00224021164800F0F4
:100A4C004FFF24E000220121134800F049FF00224F
:100A5C000221114800F044FF002204210E4800F04E
:100A6C003FFF002208210C4800F03AFF0122102120
:100A7C00094800F035FF00222021074800F030FF24
:100A8C0000224021044800F02BFF00E000BF00BF13
:100A9C000837BD4680BD00BF000C014080B582B058
:100AAC0000AF78607B68092B00F2BC8101A252F880
:100ABC0023F000BFE90A00083D0B0008910B000869
:100ACC00E50B0008390C00088D0C0008E10C00083F
:100ADC00350D0008890D0008DD0D0008002280216D
:100AEC00D34800F0FDFE00224FF48071D04800F096
:100AFC00F7FE00224FF40071CD4800F0F1FE002209
:100B0C004FF48061CA4800F0EBFE00224FF4006104
:100B1C00C74800F0E5FE00224FF48051C44800F0B5
:100B2C00DFFE01224FF40051C14800F0D9FE7AE1FA
:100B3C0001228021BE4800F0D3FE00224FF48071C8
:100B4C00BB4800F0CDFE00224FF40071B84800F015
:100B5C00C7FE01224FF48061B54800F0C1FE0122AE
:100B6C004FF40061B24800F0BBFE01224FF48051FB
:100B7C00AF4800F0B5FE01224FF40051AC4800F034
:100B8C00AFFE50E100228021A94800F0A9FE00220E
:100B9C004FF48071A64800F0A3FE01224FF40071BF
:100BAC00A34800F09DFE00224FF48061A04800F0A5
:100BBC0097FE00224FF400619D4800F091FE012247
:100BCC004FF480519A4800F08BFE00224FF40051F4
:100BDC00974800F085FE26E100228021944800F021
:100BEC007FFE00224FF48071914800F079FE0022C4
:100BFC004FF400718E4800F073FE00224FF48061B8
:100C0C008B4800F06DFE01224FF40061884800F023
:100C1C0067FE01224FF48051854800F061FE0022EE
:100C2C004FF40051824800F05BFEFCE00122802171
:100C3C007F4800F055FE00224FF480717C4800F094
:100C4C004FFE00224FF40071794800F049FE01225A
:100C5C004FF48061764800F043FE01224FF40061AE
:100C6C00734800F03DFE00224FF48051704800F0B4
:100C7C0037FE00224FF400516D4800F031FED2E0F7
:100C8C00002280216A4800F02BFE01224FF4807173
:100C9C00674800F025FE00224FF40071644800F014
:100CAC001FFE00224FF48061614800F019FE012202
:100CBC004FF400615E4800F013FE00224FF48051A7
:100CCC005B4800F00DFE00224FF40051584800F034
:100CDC0007FEA8E000228021554800F001FE012209
:100CEC004FF48071524800F0FBFD00224FF400716C
:100CFC004F4800F0F5FD00224FF480614C4800F0A5
:100D0C00EFFD00224FF40061494800F0E9FD00229C
:100D1C004FF48051464800F0E3FD00224FF400519F
:100D2C00434800F0DDFD7EE000228021404800F0C9
:100D3C00D7FD00224FF480713D4800F0D1FD002218
:100D4C004FF400713A4800F0CBFD01224FF4806162
:100D5C00374800F0C5FD01224FF40061344800F023
:100D6C00BFFD01224FF48051314800F0B9FD012242
:100D7C004FF400512E4800F0B3FD54E000228021C6
:100D8C002B4800F0ADFD00224FF48071284800F094
:100D9C00A7FD00224FF40071254800F0A1FD0022B0
:100DAC004FF48061224800F09BFD00224FF400615B
:100DBC001F4800F095FD00224FF480511C4800F0B4
:100DCC008FFD00224FF40051194800F089FD2AE0F4
:100DDC0000228021164800F083FD00224FF4807120
:100DEC00134800F07DFD00224FF40071104800F014
:100DFC0077FD00224FF480610D4800F071FD012257
:100E0C004FF400610A4800F06BFD00224FF4805152
:100E1C00074800F065FD00224FF40051044800F033
:100E2C005FFD00E000BF00BF0837BD4680BD00BFBE
:100E3C00000C014080B485B000AFF860B9607A60F6
:100E4C003B60084AFB681360064ABB685360054A5E
:100E5C007B689360034A3B68D36000BF1437BD4680
:100E6C0080BC70475C00002080B582B000AF786019
:100E7C007B68012B03D07B68022B17D02DE0194B1C
:100E8C001B681846FFF77AFC164B5B681846FFF791
:100E9C0005FE00224FF48041134800F021FD012291
:100EAC004FF40041104800F01BFD16E00D4B9B6801
:100EBC001846FFF763FC0B4BDB681846FFF7EEFD9B
:100ECC0001224FF48041084800F00AFD00224FF443
:100EDC000041054800F004FD00BF00BF0837BD46C7
:100EEC0080BD00BF5C000020000C014080B582B0CA
:100EFC0000AF00F035FA00F051F800F0D9F800F02E
:100F0C0089F8234801F04AF9224B00221A60002389
:100F1C007B6000233B604FF47A7000F031F91E4B7C
:100F2C001B68012B2ED17B68032B2DD801A252F804
:100F3C0023F000BF510F0008590F0008710F000873
:100F4C00790F00087B6801337B601EE001233B6056
:100F5C003868FFF789FF4FF4FA7000F011F902239B
:100F6C007B6012E07B6801337B600EE002233B6008
:100F7C003868FFF779FF4FF4FA7000F001F900239D
:100F8C007B6002E000BF00E000BFFFF7EBF8C6E7B4
:100F9C0084000020580000207000002080B590B024
:100FAC0000AF07F1180328220021184601F074FB4A
:100FBC003B1D00221A605A609A60DA601A610223A3
:100FCC00BB610123BB621023FB6200237B6307F12F
:100FDC001803184600F0B6FC0346002B01D000F0B5
:100FEC00C9F80F237B600023BB600023FB60002348
:100FFC003B6100237B613B1D0021184600F022FF62
:10100C000346002B01D000F0B5F800BF4037BD46B9
:10101C0080BD000080B586B000AF07F10803002248
:10102C001A605A609A60DA603B4600221A605A6075
:10103C001E4B4FF080421A601C4B41F63F725A60B7
:10104C001A4B00229A60194B4FF6FF72DA60174B5D
:10105C0000221A61154B00229A61144801F04EF8D7
:10106C000346002B01D000F085F84FF48053BB6091
:10107C0007F1080319460D4801F0DCF80346002B74
:10108C0001D000F077F800233B6000237B603B46E7
:10109C001946064801F084FA0346002B01D000F0F3
:1010AC0069F800BF1837BD4680BD00BF8400002022
:1010BC0080B586B000AF07F1080300221A605A60B1
:1010CC009A60DA60284B9B69274A43F004039361CA
:1010DC00254B9B6903F004037B607B68224B9B6967
:1010EC00214A43F0080393611F4B9B6903F00803EB
:1010FC003B603B6800224FF47C711C4800F0F0FB15
:10110C0000224FF6FF711A4800F0EAFB0E23BB6079
:10111C000023FB6000233B6107F1080319461348C9
:10112C0000F064FA4FF47C73BB600123FB60002376
:10113C003B6102237B6107F1080319460B4800F061
:10114C0055FA4FF6FF73BB600123FB6000233B6134
:10115C0002237B6107F108031946054800F046FAA3
:10116C0000BF1837BD4680BD00100240000801408A
:10117C00000C014080B400AF72B600BFFEE7000067
:10118C0080B483B000AF7860074B1B687A6892FB21
:10119C00F3F3064A1360064B00221A6000BF0C37AB
:1011AC00BD4680BC704700BF0C0000206C000020C6
:1011BC007000002080B483B000AF7860074B1B68D0
:1011CC007A6892FBF3F3064A1360064B00221A600E
:1011DC0000BF0C37BD4680BC704700BF0C00002020
:1011EC00740000207800002080B483B000AF7860D9
:1011FC00074B1B687A6892FBF3F3064A1360064BA5
:10120C0000221A6000BF0C37BD4680BC704700BF7F
:10121C000C0000207C0000208000002080B485B0F1
:10122C0000AF154B9B69144A43F001039361124BB9
:10123C009B6903F00103BB60BB680F4BDB690E4A73
:10124C0043F08053D3610C4BDB6903F080537B601C
:10125C007B680A4B5B68FB60FB6823F0E063FB6018
:10126C00FB6843F08063FB60044AFB68536000BF7B
:10127C001437BD4680BC704700100240000001408E
:10128C0080B485B000AF78607B681B68B3F1804F89
:10129C000BD1084BDB69074A43F00103D361054BC3
:1012AC00DB6903F00103FB60FB6800BF1437BD462C
:1012BC0080BC70470010024080B400AFFEE780B4E1
:1012CC0000AFFEE780B400AFFEE780B400AFFEE7EE
:1012DC0080B400AFFEE780B400AF00BFBD4680BC59
:1012EC00704780B400AF00BFBD4680BC704780B46F
:1012FC0000AF00BFBD4680BC704780B500AF00F0AA
:10130C0075F800BF80BD80B400AF00BFBD4680BC87
:10131C0070470000FFF7F7FF0B480C490C4A0023FD
:10132C0002E0D458C4500433C4188C42F9D3094A8F
:10133C00094C002301E013600432A242FBD301F0FC
:10134C0087F9FFF7D3FD7047000000201C00002038
:10135C00F82600081C000020D0000020FEE700004A
:10136C0080B500AF084B1B68074A43F010031360AD
:10137C00032000F007F90F2000F008F8FFF74EFFEC
:10138C000023184680BD00BF0020024080B582B00B
:10139C0000AF7860124B1A68124B1B7819464FF449
:1013AC007A73B3FBF1F3B2FBF3F3184600F011F9C7
:1013BC000346002B01D001230EE07B680F2B0AD8CB
:1013CC00002279684FF0FF3000F0E7F8064A7B689E
:1013DC001360002300E0012318460837BD4680BD8A
:1013EC0010000020180000201400002080B400AF72
:1013FC00054B1B781A46054B1B681344034A1360B4
:10140C0000BFBD4680BC704718000020CC000020F7
:10141C0080B400AF024B1B681846BD4680BC7047B9
:10142C00CC00002080B485B000AF78607B6803F0FE
:10143C000703FB600C4BDB68BB60BA684FF6FF031D
:10144C001340BB60FB681A02BB68134343F0BF63D5
:10145C0043F40033BB60044ABB68D36000BF14374D
:10146C00BD4680BC704700BF00ED00E080B400AF0B
:10147C00044BDB681B0A03F007031846BD4680BC0F
:10148C00704700BF00ED00E080B483B000AF0346AE
:10149C003960FB7197F90730002B0ADB3B68DAB235
:1014AC000C4997F907301201D2B20B4483F8002390
:1014BC000AE03B68DAB20849FB7903F00F03043BFE
:1014CC001201D2B20B441A7600BF0C37BD4680BC59
:1014DC00704700BF00E100E000ED00E080B489B08F
:1014EC0000AFF860B9607A60FB6803F00703FB613A
:1014FC00FB69C3F10703042B28BF0423BB61FB6901
:10150C000433062B02D9FB69033B00E000237B610B
:10151C004FF0FF32BB6902FA03F3DA43BB681A409F
:10152C007B699A404FF0FF317B6901FA03F3D94391
:10153C007B680B40134318462437BD4680BC70476C
:10154C0080B582B000AF78607B68013BB3F1807FDF
:10155C0001D301230FE00A4A7B68013B53600F2142
:10156C004FF0FF30FFF790FF054B00229A60044BC1
:10157C0007221A60002318460837BD4680BD00BFFD
:10158C0010E000E080B582B000AF78607868FFF7BB
:10159C0049FF00BF0837BD4680BD80B586B000AF9F
:1015AC000346B9607A60FB7300237B61FFF75EFF33
:1015BC0078617A68B9687869FFF790FF024697F905
:1015CC000F3011461846FFF75FFF00BF1837BD46B6
:1015DC0080BD80B582B000AF78607868FFF7B0FF4F
:1015EC00034618460837BD4680BD000080B48BB05A
:1015FC0000AF7860396000237B6200233B6248E1D6
:10160C0001227B6A02FA03F3FB613B681B68FA69EF
:10161C001340BB61BA69FB699A4240F037813B6861
:10162C005B68A34A93425ED0A14A934275D8A14A03
:10163C00934258D09F4A93426FD89F4A934252D0BC
:10164C009D4A934269D89D4A93424CD09B4A9342FF
:10165C0063D89B4A934246D0994A93425DD8122B49
:10166C002AD8122B59D801A252F823F0F3160008ED
:10167C00CD160008DF1600082117000827170008F0
:10168C002717000827170008271700082717000836
:10169C002717000827170008271700082717000826
:1016AC002717000827170008271700082717000816
:1016BC00D5160008E9160008824A934213D02CE094
:1016CC003B68DB683B6229E03B68DB6804333B62C8
:1016DC0024E03B68DB6808333B621FE03B68DB6857
:1016EC000C333B621AE03B689B68002B02D104234D
:1016FC003B6213E03B689B68012B05D108233B62DE
:10170C007B68FA691A6109E008233B627B68FA6915
:10171C005A6103E000233B6200E000BFBB69FF2B72
:10172C0001D87B6801E07B6804337B61BB69FF2BCC
:10173C0002D87B6A9B0002E07B6A083B9B003B6102
:10174C007B691A680F213B6901FA03F3DB431A40EA
:10175C00396A3B6901FA03F31A437B691A603B68E7
:10176C005B6803F08053002B00F09080564B9B6914
:10177C00554A43F001039361534B9B6903F00103FA
:10178C00BB60BB68514A7B6A9B08023352F823301A
:10179C00FB607B6A03F003039B000F2202FA03F346
:1017AC00DB43FA681340FB607B68494A93420DD0D7
:1017BC007B68484A934207D07B68474A934201D1E1
:1017CC00022304E0032302E0012300E000237A6AF1
:1017DC0002F0030292009340FA681343FB603B490A
:1017EC007B6A9B080233FA6841F823203B685B68EC
:1017FC0003F48013002B06D0384B9A683749BB6929
:10180C0013438B6006E0354B9A68BB69DB43334965
:10181C0013408B603B685B6803F40013002B06D00D
:10182C002E4BDA682D49BB691343CB6006E02B4B7A
:10183C00DA68BB69DB4329491340CB603B685B68C2
:10184C0003F40033002B06D0244B5A682349BB69A0
:10185C0013434B6006E0214B5A68BB69DB431F49BD
:10186C0013404B603B685B6803F48033002B06D05D
:10187C001A4B1A681949BB6913430B6006E0174BE6
:10188C001A68BB69DB43154913400B607B6A013353
:10189C007B623B681A687B6A22FA03F3002B7FF4A5
:1018AC00AFAE00BF00BF2C37BD4680BC704700BF39
:1018BC000000321000003110000022100000211036
:1018CC000000121000001110001002400000014036
:1018DC0000080140000C01400010014000040140D0
:1018EC0080B483B000AF78600B467B8013467B706E
:1018FC007B78002B03D07A887B681A6103E07B88A5
:10190C001A047B681A6100BF0C37BD4680BC704757
:10191C0080B485B000AF78600B467B807B68DB6859
:10192C00FB607A88FB6813401A04FB68D9437B88F8
:10193C000B401A437B681A6100BF1437BD4680BC4C
:10194C007047000080B586B000AF78607B68002BD4
:10195C0001D101236CE27B681B6803F00103002BAF
:10196C0000F08780924B5B6803F00C03042B0CD0C7
:10197C008F4B5B6803F00C03082B12D18C4B5B680C
:10198C0003F48033B3F5803F0BD1894B1B6803F410
:10199C000033002B6CD07B685B68002B68D1012373
:1019AC0046E27B685B68B3F5803F06D1804B1B68D1
:1019BC007F4A43F4803313602EE07B685B68002B16
:1019CC000CD17B4B1B687A4A23F480331360784B21
:1019DC001B68774A23F4802313601DE07B685B68E7
:1019EC00B3F5A02F0CD1724B1B68714A43F48023C2
:1019FC0013606F4B1B686E4A43F4803313600BE02B
:101A0C006B4B1B686A4A23F480331360684B1B686A
:101A1C00674A23F4802313607B685B68002B13D028
:101A2C00FFF7F6FC386108E0FFF7F2FC02463B6971
:101A3C00D31A642B01D90323FAE15D4B1B6803F421
:101A4C000033002BF0D014E0FFF7E2FC386108E023
:101A5C00FFF7DEFC02463B69D31A642B01D9032342
:101A6C00E6E1534B1B6803F40033002BF0D100E08C
:101A7C0000BF7B681B6803F00203002B63D04C4B48
:101A8C005B6803F00C03002B0BD0494B5B6803F035
:101A9C000C03082B1CD1464B5B6803F48033002BE2
:101AAC0016D1434B1B6803F00203002B05D07B6857
:101ABC001B69012B01D00123BAE13D4B1B6823F0BC
:101ACC00F8027B685B69DB00394913430B603AE031
:101ADC007B681B69002B20D0364B01221A60FFF764
:101AEC0097FC386108E0FFF793FC02463B69D31A78
:101AFC00022B01D903239BE12D4B1B6803F002033E
:101B0C00002BF0D02A4B1B6823F0F8027B685B6932
:101B1C00DB00274913430B6015E0264B00221A60AB
:101B2C00FFF776FC386108E0FFF772FC02463B6970
:101B3C00D31A022B01D903237AE11D4B1B6803F046
:101B4C000203002BF0D17B681B6803F00803002B09
:101B5C003AD07B689B69002B19D0174B01221A6075
:101B6C00FFF756FC386108E0FFF752FC02463B6970
:101B7C00D31A022B01D903235AE10D4B5B6A03F0F4
:101B8C000203002BF0D0012000F09AFA1CE00A4B63
:101B9C0000221A60FFF73CFC38610FE0FFF738FCBD
:101BAC0002463B69D31A022B08D9032340E100BF3C
:101BBC000010024000004242800442429E4B5B6A8D
:101BCC0003F00203002BE9D17B681B6803F00403CC
:101BDC00002B00F0A6800023FB75974BDB6903F00C
:101BEC008053002B0DD1944BDB69934A43F0805307
:101BFC00D361914BDB6903F08053BB60BB6801235D
:101C0C00FB758E4B1B6803F48073002B18D18B4B28
:101C1C001B688A4A43F480731360FFF7F9FB386141
:101C2C0008E0FFF7F5FB02463B69D31A642B01D998
:101C3C000323FDE0814B1B6803F48073002BF0D071
:101C4C007B68DB68012B06D17B4B1B6A7A4A43F01D
:101C5C00010313622DE07B68DB68002B0CD1764B03
:101C6C001B6A754A23F001031362734B1B6A724A99
:101C7C0023F0040313621CE07B68DB68052B0CD19A
:101C8C006D4B1B6A6C4A43F0040313626A4B1B6A6C
:101C9C00694A43F0010313620BE0674B1B6A664A07
:101CAC0023F001031362644B1B6A634A23F00403A1
:101CBC0013627B68DB68002B15D0FFF7A9FB38613A
:101CCC000AE0FFF7A5FB02463B69D31A41F28832C2
:101CDC00934201D90323ABE0574B1B6A03F0020379
:101CEC00002BEED014E0FFF793FB38610AE0FFF70E
:101CFC008FFB02463B69D31A41F28832934201D9D9
:101D0C00032395E04C4B1B6A03F00203002BEED12E
:101D1C00FB7D012B05D1484BDB69474A23F08053EF
:101D2C00D3617B68DB69002B00F08180424B5B68E0
:101D3C0003F00C03082B61D07B68DB69022B46D1C6
:101D4C003F4B00221A60FFF763FB386108E0FFF796
:101D5C005FFB02463B69D31A022B01D9032367E0D0
:101D6C00354B1B6803F00073002BF0D17B681B6AAA
:101D7C00B3F5803F08D1304B5B6823F400327B68AD
:101D8C009B682D4913434B602B4B5B6823F47412F7
:101D9C007B68196A7B685B6A0B43274913434B606A
:101DAC00274B01221A60FFF733FB386108E0FFF77D
:101DBC002FFB02463B69D31A022B01D9032337E0D0
:101DCC001D4B1B6803F00073002BF0D02FE01C4B55
:101DDC0000221A60FFF71CFB386108E0FFF718FBC4
:101DEC0002463B69D31A022B01D9032320E0124B84
:101DFC001B6803F00073002BF0D118E07B68DB69E3
:101E0C00012B01D1012313E00B4B5B68FB60FB68DA
:101E1C0003F480327B681B6A9A4206D1FB6803F498
:101E2C0070127B685B6A9A4201D0012300E00023A8
:101E3C0018461837BD4680BD0010024000700040A7
:101E4C006000424280B584B000AF786039607B6836
:101E5C00002B01D10123D0E06A4B1B6803F0070370
:101E6C003A689A4210D9674B1B6823F00702654900
:101E7C003B6813430B60634B1B6803F007033A6822
:101E8C009A4201D00123B8E07B681B6803F002037F
:101E9C00002B20D07B681B6803F00403002B05D0BB
:101EAC00594B5B68584A43F4E06353607B681B688A
:101EBC0003F00803002B05D0534B5B68524A43F4E4
:101ECC0060535360504B5B6823F0F0027B689B6857
:101EDC004D4913434B607B681B6803F00103002BD7
:101EEC0040D07B685B68012B07D1474B1B6803F420
:101EFC000033002B15D101237FE07B685B68022B3C
:101F0C0007D1414B1B6803F00073002B09D101234F
:101F1C0073E03D4B1B6803F00203002B01D101233E
:101F2C006BE0394B5B6823F003027B685B683649D6
:101F3C0013434B60FFF76CFAF8600AE0FFF768FA9E
:101F4C000246FB68D31A41F28832934201D903232B
:101F5C0053E02D4B5B6803F00C027B685B689B00C5
:101F6C009A42EBD1274B1B6803F007033A689A425D
:101F7C0010D2244B1B6823F0070222493B68134301
:101F8C000B60204B1B6803F007033A689A4201D0A0
:101F9C00012332E07B681B6803F00403002B08D09C
:101FAC00194B5B6823F4E0627B68DB6816491343CA
:101FBC004B607B681B6803F00803002B09D0124BA5
:101FCC005B6823F460527B681B69DB000E4913438A
:101FDC004B6000F021F802460B4B5B681B0903F0C9
:101FEC000F030A49CB5C22FA03F3094A1360094B2D
:101FFC001B681846FFF7CAF9002318461037BD4670
:10200C0080BD00BF0020024000100240CC2600081A
:10201C00100000201400002080B487B000AF002313
:10202C00FB600023BB6000237B6100237B600023EB
:10203C003B611E4B5B68FB60FB6803F00C03042BDD
:10204C0002D0082B03D027E0194B3B6127E0FB683B
:10205C009B0C03F00F03174AD35C7B60FB6803F403
:10206C008033002B10D0114B5B685B0C03F0010329
:10207C00114AD35CBB607B680D4A02FB03F2BB6860
:10208C00B2FBF3F37B6104E07B680C4A02FB03F3C5
:10209C007B617B693B6102E0054B3B6100BF3B69A7
:1020AC0018461C37BD4680BC704700BF001002406C
:1020BC0000127A00DC260008EC26000800093D001E
:1020CC0080B485B000AF78600A4B1B680A4AA2FB4B
:1020DC0003235B0A7A6802FB03F3FB6000BFFB6817
:1020EC005A1EFA60002BF9D100BF00BF1437BD4651
:1020FC0080BC704710000020D34D621080B582B0B8
:10210C0000AF78607B68002B01D1012341E07B6834
:10211C0093F83D30DBB2002B06D17B68002283F8AC
:10212C003C207868FFF7ACF87B68022283F83D20EE
:10213C007B681A687B6804331946104600F042F934
:10214C007B68012283F846207B68012283F83E20BD
:10215C007B68012283F83F207B68012283F84020B2
:10216C007B68012283F841207B68012283F842209E
:10217C007B68012283F843207B68012283F844208A
:10218C007B68012283F845207B68012283F83D207F
:10219C00002318460837BD4680BD000080B485B0CA
:1021AC0000AF78607B6893F83D30DBB2012B01D037
:1021BC00012335E07B68022283F83D207B681B6895
:1021CC00DA687B681B6842F00102DA607B681B6886
:1021DC00164A934209D07B681B68B3F1804F04D038
:1021EC007B681B68124A934211D17B681B689B6801
:1021FC0003F00703FB60FB68062B10D07B681B68A1
:10220C001A687B681B6842F001021A6007E07B6861
:10221C001B681A687B681B6842F001021A60002375
:10222C0018461437BD4680BC704700BF002C0140D7
:10223C000004004080B584B000AF786039600023A2
:10224C00FB737B6893F83C30012B01D10223B4E083
:10225C007B68012283F83C207B68022283F83D20B6
:10226C007B681B689B68BB60BB6823F07703BB6013
:10227C00BB6823F47F43BB607B681B68BA689A60B9
:10228C003B681B68B3F5005F3ED0B3F5005F00F20E
:10229C008780B3F5805F00F08680B3F5805F7FD8D0
:1022AC00702B1AD0702B7BD8602B50D0602B77D82A
:1022BC00502B3CD0502B73D8402B58D0402B6FD880
:1022CC00302B64D0302B6BD8202B60D0202B67D8D0
:1022DC00002B5CD0102B5AD062E07B6818683B68EE
:1022EC0099683B685A683B68DB6800F03AF97B6890
:1022FC001B689B68BB60BB6843F07703BB607B6863
:10230C001B68BA689A604FE07B6818683B689968EC
:10231C003B685A683B68DB6800F023F97B681B68F4
:10232C009A687B681B6842F480429A603CE07B6848
:10233C0018683B6859683B68DB681A4600F09AF8E5
:10234C007B681B685021184600F0F1F82CE07B6884
:10235C0018683B6859683B68DB681A4600F0B8F8A7
:10236C007B681B686021184600F0E1F81CE07B6874
:10237C0018683B6859683B68DB681A4600F07AF8C5
:10238C007B681B684021184600F0D1F80CE07B6894
:10239C001A683B681B681946104600F0C8F803E041
:1023AC000123FB7300E000BF7B68012283F83D2012
:1023BC007B68002283F83C20FB7B18461037BD4617
:1023CC0080BD000080B485B000AF786039607B6858
:1023DC001B68FB607B68254A934207D07B68B3F18E
:1023EC00804F03D07B68224A934208D1FB6823F0CC
:1023FC007003FB603B685B68FA681343FB607B68A7
:10240C001A4A934207D07B68B3F1804F03D07B68A4
:10241C00174A934208D1FB6823F44073FB603B6876
:10242C00DB68FA681343FB60FB6823F080023B68AF
:10243C005B691343FB607B68FA681A603B689A68B7
:10244C007B68DA623B681A687B689A627B68074A29
:10245C00934203D13B681A697B681A637B6801223B
:10246C005A6100BF1437BD4680BC7047002C014038
:10247C000004004080B487B000AFF860B9607A60A7
:10248C00FB681B6A7B61FB681B6A23F00102FB681B
:10249C001A62FB689B693B613B6923F0F0033B616B
:1024AC007B681B013A6913433B617B6923F00A0388
:1024BC007B617A69BB6813437B61FB683A699A61FB
:1024CC00FB687A691A6200BF1C37BD4680BC704736
:1024DC0080B487B000AFF860B9607A60FB681B6AA3
:1024EC007B61FB681B6A23F01002FB681A62FB68B5
:1024FC009B693B613B6923F470433B617B681B0325
:10250C003A6913433B617B6923F0A0037B61BB6891
:10251C001B017A6913437B61FB683A699A61FB681A
:10252C007A691A6200BF1C37BD4680BC704780B404
:10253C0085B000AF786039607B689B68FB60FB6896
:10254C0023F07003FB603A68FB68134343F0070306
:10255C00FB607B68FA689A6000BF1437BD4680BC8C
:10256C00704780B487B000AFF860B9607A603B60A8
:10257C00FB689B687B617B6923F47F437B613B68D1
:10258C001A027B681A43BB6813437A6913437B6155
:10259C00FB687A699A6000BF1C37BD4680BC7047E7
:1025AC0080B485B000AF786039607B6893F83C30BC
:1025BC00012B01D1022341E07B68012283F83C20EE
:1025CC007B68022283F83D207B681B685B68FB609C
:1025DC007B681B689B68BB60FB6823F07003FB6027
:1025EC003B681B68FA681343FB607B681B68FA68DE
:1025FC005A607B681B68144A934209D07B681B683D
:10260C00B3F1804F04D07B681B68104A93420CD105
:10261C00BB6823F08003BB603B685B68BA681343FC
:10262C00BB607B681B68BA689A607B68012283F880
:10263C003D207B68002283F83C2000231846143789
:10264C00BD4680BC704700BF002C01400004004018
:10265C0070B500260C4D0D4C641BA410A64209D17C
:10266C0000F022F800260A4D0A4C641BA410A64266
:10267C0005D170BD55F8043B98470136EEE755F887
:10268C00043B98470136F2E7F0260008F0260008D4
:10269C00F0260008F426000803460244934200D1B9
:1026AC00704703F8011BF9E7F8B500BFF8BC08BC8C
:1026BC009E467047F8B500BFF8BC08BC9E467047F4
:1026CC0000000000000000000102030406070809D6
:1026DC0002030405060708090A0B0C0D0E0F101057
:0426EC0001020000E7
:0426F00031010008AC
:0426F4000D010008CC
:1026F8000500000003000000020000000A000000BE
:0C2708000024F40010000000010000009C
:0400000508001321BB
:00000001FF
